:020000040800F2
:1000000000800120012D0008A12C0008A32C00086D
:10001000A52C0008A72C0008A92C0008000000004F
:10002000000000000000000000000000AB2C0008F1
:10003000AD2C000800000000AF2C0008B12C000817
:10004000512D0008512D0008512D0008512D000898
:10005000512D0008512D0008512D0008512D000888
:10006000512D0008512D0008512D0008512D000878
:10007000512D0008512D0008512D0008512D000868
:10008000512D0008512D0008512D000800000000DE
:10009000000000000000000000000000512D0008DA
:1000A000512D0008512D0008512D0008512D000838
:1000B000512D0008512D0008512D0008512D000828
:1000C000512D0008512D0008512D0008512D000818
:1000D000512D0008512D0008512D0008000000008E
:1000E000512D0008512D0008512D0008000000007E
:1000F000000000000000000000000000512D00087A
:1001000000000000512D0008512D0008512D00085D
:1001100000000000000000000000000000000000DF
:10012000512D0008512D0008512D0008512D0008B7
:10013000512D000800000000000000000000000039
:10014000000000000000000000000000512D000829
:10015000512D0008512D0008512D0008512D000887
:10016000512D0008512D0008000000000000000083
:10017000000000000000000000000000000000007F
:1001800000000000512D00080000000000000000E9
:04019000512D0008E5
:1001940010B5054C237833B9044B13B10448AFF3BD
:1001A40000800123237010BD7800002000000000AF
:1001B400803A000808B5034B1BB103490348AFF369
:1001C400008008BD000000007C000020803A000888
:1001D40010F8012B11F8013B012A28BF9A42F7D0ED
:1001E400D01A704753B94AB9002908BF00281CBF68
:1001F4004FF0FF314FF0FF3001F0F6B8ADF1080CCD
:100204006DE904CE00F006F8DDF804E0DDE9022330
:1002140004B070472DE9F0478C460D460446089E0D
:10022400002B51D18A4217466DD9B2FA82FEBEF133
:10023400000F0BD0CEF1200C01FA0EF520FA0CFCC5
:1002440002FA0EF74CEA050C00FA0EF44FEA174ACC
:10025400250CBCFBFAF81FFA87F90AFB18CC45EA0F
:100264000C4508FB09F3AB420AD9ED1908F1FF323A
:1002740080F02381AB4240F22081A8F102083D4482
:10028400ED1AA4B2B5FBFAF00AFB105544EA054492
:1002940000FB09F9A14509D9E41900F1FF3380F005
:1002A4000A81A14540F2078102383C44A4EB0904C9
:1002B40040EA08400021002E61D024FA0EF4002305
:1002C40034607360BDE8F0878B4207D9002E54D0A8
:1002D400002186E821000846BDE8F087B3FA83F1DF
:1002E400002940F08E80AB4202D3824200F2FA80B1
:1002F400841A65EB03050120AC46002E3FD086E846
:100304001010BDE8F08712B90127B7FBF2F7B7FA6E
:1003140087FEBEF1000F34D1EB1B3A0C1FFA87FCA9
:100324000121B3FBF2F8250C02FB183345EA03451F
:100334000CFB08F3AB4207D9ED1908F1FF3002D2E8
:10034400AB4200F2D1808046ED1AA3B2B5FBF2F0C5
:1003540002FB105543EA05440CFB00FCA44507D9F5
:10036400E41900F1FF3302D2A44500F2B880184624
:10037400A4EB0C0440EA08409DE731463046BDE852
:10038400F087CEF1200405FA0EF307FA0EF720FAEF
:1003940004F83A0C25FA04F448EA0308B4FBF2F131
:1003A4004FEA184502FB11441FFA87FC45EA04454D
:1003B40001FB0CF3AB4200FA0EF409D9ED1901F17B
:1003C400FF3080F08A80AB4240F2878002393D449E
:1003D400EB1A1FFA88F5B3FBF2F002FB103345EA7F
:1003E400034500FB0CF3AB4207D9ED1900F1FF38CC
:1003F4006FD2AB426DD902383D44EB1A40EA014159
:100404008FE7C1F1200722FA07F88B4005FA01F4BF
:1004140048EA030320FA07FE4FEA134CFD404EEA74
:10042400040EB5FBFCF94FEA1E440CFB19551FFAE8
:1004340083F844EA054509FB08F4AC4202FA01F2E8
:1004440000FA01FA08D9ED1809F1FF3043D2AC42A1
:1004540041D9A9F102091D442D1B1FFA8EFEB5FBDB
:10046400FCF00CFB10554EEA054400FB08F8A045CF
:1004740007D9E41800F1FF3529D2A04527D902385D
:100484001C4440EA0940A4EB0804A0FB02894C4543
:10049400C6464D4615D312D056B1BAEB0E0364EBE3
:1004A400050404FA07F7CB401F43CC40376074605F
:1004B4000021BDE8F0871846F8E69046E0E6C2451C
:1004C400EAD2B8EB020E69EB03050138E4E72846EB
:1004D400D7E7404691E78146BEE7014678E7023810
:1004E4003C4445E7084608E7A8F102083D442BE7E9
:1004F40003685A004CBF43F0004323F00043184400
:10050400704700BF61B32DE9F84F01F1FF3A9046FF
:100514000646D146002707EB090404EBD4746410A3
:10052400E50071190846FFF7E3FFA245834605F18C
:100534000800304409D0FFF7DBFFC34500F1FF306A
:1005440005D8404509D2671CE5E7C34505D9A7424C
:1005540002D004F1FF39DEE700210846BDE8F88F38
:1005640008467047012807D0022807D0044B00280A
:100574000CBF184600207047024870470248704775
:100584006D0C0008710C0008750C000830B5244B84
:1005940083B004468D1E7BB301A92846AFF30080C7
:1005A40020B301992A46FFF7ADFF0146F0B1FFF7EA
:1005B4009FFF4B68A064012B12D0002B01F10400B3
:1005C40020DBFFF795FF0023E06423650368002B1D
:1005D4001CDBFFF78DFF00232061184603B030BDFC
:1005E400002323610523184603B030BD0023236193
:1005F4000923184603B030BD0A490B48091AC9102B
:100604000191CFE70123E0642365DFE7C3F30360CF
:10061400FFF7A8FF0028206114BF00230923DCE7AB
:1006240000000000283E0008D83C00080368DA07F0
:1006340010B5044606D49B0700F1480009D500F024
:1006440051FC2368590709D51A070ED5DB0613D5C3
:1006540010BD00F03FFC23685907F5D404F1D00025
:1006640000F048FC23681A07F0D404F5A87000F0E1
:1006740049FC2368DB06EBD404F5E870BDE81040C0
:1006840000F084BC036803B103441846704700BFFC
:1006940009207047704700BF70B504460D4608E056
:1006A4002B6C63612A462369214601209847082858
:1006B40008D1296C2046FFF769FF06460028EFD0D1
:1006C40003F06AF80728FBD13046296CFFF7E2FFF4
:1006D400281D00F0F3FB00BF2DE9F0470C1D054673
:1006E40092460FCCADF5727D03AE0FC60FCC0FC68C
:1006F4000FCC0FC694E80F0002ACD5F80C80D5F8E7
:10070400189086E80F0000232846216C2360FFF729
:100714003DFFBAF1000F074614BF0A2609267FB130
:10072400A36B46F010018DE810022A466364012091
:100734002B46C04778BB38460DF5727DBDE8F0877F
:10074400236C6B614FF4F07221467AA803F06AF9C6
:100754002B697AAA294630469847889B82468DE8B9
:100764001002314663642A462B460120C04790B9E3
:100774004FF4F0727AA9204603F054F9BAF1080F45
:1007840006D1216C2846FFF701FF09260746C6E774
:10079400BAF1070F05D0092738460DF5727DBDE87B
:1007A400F0873846216CFFF775FF03A800F086FB3D
:1007B400406C7047F0B5CB6B0B640E1D0F460446BE
:1007C4000FCEF9B001AD0FC50FCE0FC50FCE0FC5BB
:1007D40096E80F004FF0FF3685E80F00009606E01C
:1007E40023696A46214698470828054608D1109986
:1007F4002046FFF7CBFE0028F2D0092079B0F0BDE7
:100804006846FFF713FF062DF7D139462046FFF758
:1008140043FF00BF30B4DD6BC160826119461D64C3
:10082400002230BC58E700BF70B5C66843690B644A
:1008340026B10122FFF750FF02F0AEFF03690A461A
:1008440004460D46014602209847072807D0082889
:1008540003D129462046FFF71FFF02F09DFF3046D3
:10086400296CFFF717FF281D00F028FBC2681AB196
:10087400CA6B0A6400222FE79CE700BF704700BFE1
:10088400836813B1014601201847704700B5042955
:1008940007D8DFE801F00309060909000BB90F2A9C
:1008A40005D902205DF804FB01205DF804FB00EB90
:1008B400820218465368019A13605DF804FB00BF76
:1008C40010B584B0002303AC0A4600941946FFF720
:1008D400DDFF039804B010BD00B5042907D8DFE894
:1008E40001F00309060909000BB90F2A05D90220F2
:1008F4005DF804FB01205DF804FB019900EB820222
:100904000968516018465DF804FB00BF10B584B057
:1009140004AC002344F8042D0A4600941946FFF75A
:10092400DBFF04B010BD00BFF0B5D36B1364151D1D
:1009340007460E460FCDADF50F7D17AC0FC40FCD96
:100944000FC40FCD0FC495E80F004FF0FF3584E8B6
:100954000F00169510E016A8FFF7D8FF314616A829
:10096400B84716AA694678B9049B08209847052811
:1009740004460AD0092807D026996846FFF706FEE0
:100984006A460C210028E6D0092416A8FFF74EFE7B
:1009940020460DF50F7DF0BD2DE9F04F0D46C96CD5
:1009A4008BB00C1D096807919146089400F0030B65
:1009B4001E46002B60D10902032307918DF82560A0
:1009C4008DF824302B6DBBF1020F08BFAC6B13F014
:1009D400010340D1019300F008030393D4F800808D
:1009E400B8F1000F39D0022E43D0B4F800806788E4
:1009F4000434AB6C27F0010A0F2148469A44FFF7F0
:100A04005FFF824533D828F001039A4450452CBF38
:100A1400002001207F0007F0020708F0010847EAE0
:100A24000807012F3ED035D3022F1CD1236823F0B1
:100A340000420292BBF1000F76D128B1039900293C
:100A44007ED0002A00F0A680002B77DB029B0133C6
:100A540004EB8304C2E700230193022E3EDDFFF77B
:100A640017FE002840D009200BB0BDE8F08F00200D
:100A7400D0E767680834BCE7022BA3DC0B0CDAB2BE
:100A840009048DF82530022304EB820407918DF8C4
:100A9400243097E7BBF1000F02D0002840F0BD805E
:100AA40004349BE7BBF1000F25D1A8B194E80C00F6
:100AB400991C4FEAD272D6D005F158010133069140
:100AC40000F0A380201DFFF7DDFD06AB014628469C
:100AD40002F074F9002877D108347FE707A9484663
:100AE40000F0EEFA0028BED1019B002B5CD1082057
:100AF4000BB0BDE8F08F0D2148462F6AFFF7E0FEEA
:100B04008742E9D1AB6A9C42E6D12046FFF7F0FC6C
:100B14000F2102464846FFF7F9FE48462A460021BF
:100B2400FFF7F4FE07209FE70D2148462F6AFFF7E1
:100B3400C7FE874258D02368002B87DA043485E740
:100B4400029B3BB305F15803271DCDF810B0DDF827
:100B54000C80DDF808A00596A3461C4602E0B245C9
:100B6400B04616D038460694FFF78CFD06AB014616
:100B74000022284602F022F908F101060437002871
:100B8400EDD0029B059E43455C46DDF810B0D2D102
:100B940000E05C4648460D21FFF792FE069B286262
:100BA400AC626B6206205FE70F214846FFF788FEC0
:100BB4000E2102464846FFF7A9FE4846294A0F215E
:100BC400FFF7A4FE07204FE707460D214846FFF72D
:100BD40077FE022F28621DD12B46069A43F82C2F4C
:100BE4006B62AC6206203FE7AB6A9C42A3D104224D
:100BF4000027A3180299A962EF622A636B63236832
:100C0400BB421DDB0123019320E748460D21FFF77A
:100C140057FE2862069B6B62E3E72046FFF768FCF9
:100C240004340646AC63284602F026F900283FF453
:100C34001AAF484632460F21FFF768FE072013E734
:100C44000846013004EB8000FFF752FC0F210246F6
:100C54004846FFF75BFE48462A463946FFF756FEEC
:100C6400072001E793360008002395E6012393E665
:100C7400022391E6F0B50446C5B004290DD8DFE897
:100C840001F053030C310F00012B4FEA124695B2C9
:100C940062D17219102A40F29B80022045B0F0BD47
:100CA400002BFAD1102AF8D82368D80600F1C680A0
:100CB40022AE3046019200F073F9A06B019A002332
:100CC400012505FA03F1114203D0016846F8231007
:100CD40004300133042BF4D1A063304600F056F9FC
:100CE4000020DBE7032BD8D1150C97B2EB19102B9E
:100CF400D3D823681E0700F1B58022AE304600F039
:100D040023F9ED00A36B4FB1043D711903EBC70048
:100D140053F8042B41F8042F8342F9D13046A363DE
:100D240000F0F0F80020B9E7002BB6D1A56B97B21C
:100D3400201D012606FA03F1394203F1010302D012
:100D4400296801600435102B00F10400F2D112F47B
:100D540000503BD1A563A1E7052B9ED17719202F25
:100D64009BD80F2E66D92F46002D3AD12A4600274C
:100D7400002AA06B72DD00EBC202014644A800EB1E
:100D8400C6008C3851F8045B40F8045F9142F9D1F5
:100D9400084697B1102E324644A938BF102201EB01
:100DA400C202A2F5C4727900043A00EB810150F842
:100DB400045B42F8045F8842F9D1012B48D00F2E1E
:100DC400A16333D917B102A800F094F8002065E7B5
:100DD4000F2E3FF662AF00272268D10717D4002FE9
:100DE40060D02268510745D4012B4DD00F2E06D870
:100DF40022A8019300F07AF8019B002FB6D002A834
:100E0400019300F07BF8019BC6F11002B0E722F0D9
:100E14000101052B2160019320463BD022F00302FF
:100E240040F8482B00F05AF8019BD8E722A800F0BC
:100E340059F8C7E7102FCED9103FCDE723F01003A0
:100E4400236004F5E870019200F0AAF8019A2FE7F4
:100E54000431A16322A800F03DF8B7E7002F99D12F
:100E64000146AAE723F00803236004F5A87000F004
:100E74006BF842E7204622F0040240F8D02B01939D
:100E840000F03CF8019BAFE722A8019300F026F89C
:100E9400019BB9E741F0020140F8481B00F026F835
:100EA400019B9CE7012B03D00F2E3FF65FAF9FE71A
:100EB40022A8019300F012F8019B57E700F13401D6
:100EC40091E838009C46A6464CF8045D90E8FF0F74
:100ED400E54600BD90EC210B704700BF80EC210B70
:100EE400704700BF90EC200B704700BF80EC200BD4
:100EF400704700BFD0EC200B704700BFC0EC200B44
:100F0400704700BFF0EC0201F0EC0211F0EC02219A
:100F1400F0EC0231F0EC0241F0EC0251F0EC026131
:100F2400F0EC0271F0EC0281F0EC0291F0EC02A121
:100F3400F0EC02B1F0EC02C1F0EC02D1F0EC02E111
:100F4400F0EC02F1704700BFE0EC0201E0EC0211AA
:100F5400E0EC0221E0EC0231E0EC0241E0EC025171
:100F6400E0EC0261E0EC0271E0EC0281E0EC029161
:100F7400E0EC02A1E0EC02B1E0EC02C1E0EC02D151
:100F8400E0EC02E1E0EC02F1704700BFB0FC01814B
:100F9400B0FC0191B0FC01A1B0FC01B1704700BFED
:100FA400A0FC0181A0FC0191A0FC01A1A0FC01B165
:100FB400704700BFEC4600B52DE900502DE9FF1F36
:100FC4004FF000032DE90C0001A9FFF7F3FBDDF856
:100FD40040E012B0704700BFEC4600B52DE9005068
:100FE4002DE9FF1F4FF000032DE90C0001A9FFF7C5
:100FF4001BFCDDF840E012B0704700BFEC4600B5C2
:101004002DE900502DE9FF1F4FF000032DE90C00DE
:1010140001A9FFF72BFCDDF840E012B0704700BFD8
:10102400EC4600B52DE900502DE9FF1F4FF00003F9
:101034002DE90C0001ABFFF7EDFBDDF840E012B049
:10104400704700BFEC4600B52DE900502DE9FF1FA5
:101054004FF000032DE90C0001AAFFF765FCDDF851
:1010640040E012B0704700BF027A1AB9437A43B91C
:10107400B02070470368013A02721A020260180E27
:1010840070474268013B10B4437213680321141D76
:1010940001721A02446002605DF8044B180E704736
:1010A40000B585B003AA0023009219460C22FFF76D
:1010B400EDFB039805B05DF804FB00BFF0E700BF4B
:1010C4002DE9F043064685B00F464FF00008384638
:1010D400FFF7CAFFB028044623D0050627D400230F
:1010E4000DF10C09194685000D22CDF8009030460B
:1010F400FFF7CCFBEDB2039BCDF80090600605F141
:1011040004054CBF5D1BED18002319460D22304623
:101114000395FFF7E1FB3846FFF7A6FFB028044626
:10112400DBD1B8F1000F00F0958000201CE000F046
:10113400F003802B5DD0902B19D0A02B2CD0B02B9A
:101144003FD0C02B6CD000F0F803D02B0BD100F0B3
:101154000702013242F40022052301213046FFF741
:1011640089FD0028B3D0092005B0BDE8F08300F064
:101174000D030D2BF7D003AD002300F00F02194629
:1011840000953046FFF782FB0023009519460D2297
:101194003046FFF7A1FB9AE7C24302F007034FF47E
:1011A4007F621A41010702F47F624FF0000348BFD7
:1011B40042F4804219463046FFF75CFD0028D2D144
:1011C40085E7B12857D0B22868D0B32800F09580BD
:1011D40000F0FC03B42BC6D000F007020132012357
:1011E40042F4002219463046FFF744FD0028BAD1E4
:1011F4006DE73846FFF738FF24020443B4F5004F87
:10120400B1D024010023A2B219463046FFF732FDC3
:101214000028A8D114F4004F18BF4FF0010856E776
:10122400C6287DD0C72800F0868000F0F803C02BC4
:1012340000F09480C82800F09F80C92893D13846D4
:10124400FFF712FF020300F00F0002F470220130D6
:10125400024381E703AC43460E22414600943046E4
:10126400FFF714FB0094304643460F224146FFF734
:1012740033FB404678E73846FFF7F6FE00283FF494
:1012840072AF10F0F0037FF46EAF02461946304699
:10129400FFF7F0FC00287FF466AF18E700230DF198
:1012A4000C090D221946CDF800903046FFF7EEFAEE
:1012B4003846FFF7D9FE02064FF002040CD5039B13
:1012C40000F07F00A040034438460393FFF7CCFEB0
:1012D400030604F10704F2D4039BCDF8009000F058
:1012E4007F02A24003F501740023144419460D2221
:1012F40030460394FFF7F0FAE9E63846FFF7B4FE08
:10130400010300F00F0001F47021421C01230A4381
:1013140030461946FFF7AEFC00287FF424AFD6E62A
:101324003846FFF7A1FE010300F00F0001F470211D
:10133400421C0323EBE73846FFF796FE00283FF4F0
:1013440012AF10F0F0037FF40EAF024604213046D2
:10135400FFF790FC00287FF406AFB8E600F00F0218
:101364000132032342F4202219463046FFF782FC5F
:1013740000287FF4F8AEAAE63846FFF775FE00F0C1
:10138400F00200F00F031032013343EA0232E3E6C5
:1013940010B5C36C84B05A6803208DF80C00DC7956
:1013A4008DF80D4012020833084601A901920293F8
:1013B400FFF786FE04B010BD08B5FFF77FFE806C12
:1013C40008BD00BF08B5FFF779FEC06CC37900EB18
:1013D4008300083008BD00BF08B502F0DDF900BF86
:1013E40008B5FFF7F9FF00BF704700BF80B485B0B0
:1013F40000AFF860B96011461A460B46FB711346FC
:10140400BB71304AFB681A603B8B9B021A46FB682F
:101414005A60FB68BA689A60FB689A68FB68DA608D
:10142400FB689A68FB685B6813445A1EFB681A6180
:10143400FB68FA791A75FB689A68FB685B681A445A
:10144400FB689A61FB689A68FB685B685B001344FD
:101454005A1EFB68DA61FB68BA7983F820203B7F67
:10146400013B032B1DD801A252F823F09D14000860
:10147400931400088914000881140008FB680022F2
:101484005A840FE0FB684FF480425A840AE0FB68F8
:101494004FF400425A8405E0FB684FF440425A84FA
:1014A40000E000BFFB6800229A84FB680022DA8413
:1014B400FB6800221A85FB6818461437BD465DF8A0
:1014C400047B7047A03A000880B582B000AF786012
:1014D400044A7B681A6000F0F9FE7B6818460837F6
:1014E400BD4680BDA03A000880B582B000AF7860E8
:1014F4007868FFF7E9FF786801F029FC7B681846F3
:101504000837BD4680BD80B582B000AF786000F07A
:10151400CBFE786800F0D0FA0346002B14BF0123F9
:101524000023DBB2002B01D0002300E00123184686
:101534000837BD4680BD80B582B000AF78603960A1
:101544007B685A8C3B689BB2134499B27B68243302
:101554001A46786800F00AFD7B689A8C7B681A85C5
:101564007B681B8DDBB218460837BD4680BD80B54D
:1015740084B000AFF860B9601346FB71FB799AB28E
:10158400FB68DA84FB685A8CBB689BB2134499B23B
:10159400FB68DB8C1A46F86800F03AFD0346002B22
:1015A40014BF01230023DBB2002B01D0002300E091
:1015B400012318461037BD4680BD80B586B000AF04
:1015C400F860B9607A603B600023FB753B68002BD0
:1015D4001FD0FB7D5B00002B03D1FB7DDB11002BB7
:1015E40001D0012300E00023FB757B681A78FB7DA2
:1015F4001344FB75B9684B1CBB607B685A1C7A604A
:101604001B781A46F868FFF7B2FF3B68013B3B6062
:10161400DCE7FB7D1A46B968F868FFF7A8FF00BF4E
:101624001837BD4680BD80B586B000AFF860B9609C
:101634007A603B600023FB753B68002B21D07B68FC
:101644005A1C7A601946F868FFF775FF0346BB75A4
:10165400FB7D5B00002B03D1FB7DDB11002B01D054
:10166400012300E00023FB75FA7DBB7D1344FB7569
:10167400BB685A1CBA60BA7D1A703B68013B3B6078
:10168400DAE77968F868FFF756FF03461A46FB7DE8
:1016940093420CBF01230023DBB2002B01D00123B2
:1016A40000E0002318461837BD4680BD80B58AB0D7
:1016B40000AF7860002387F8273000233B620023C3
:1016C400FB607B681B7D7B610123BB610223FB61A3
:1016D4007B68DB681946786800F0C8F90346002B7C
:1016E4000CBF01230023DBB2002B11D007F1200231
:1016F40007F10C031146184600F0C8FE034687F8AC
:10170400273097F82730002B02D097F8273037E09E
:101714007B68D9684FF000024FF00003012000F00D
:1017240009FE034687F8273097F82730002B02D0AC
:1017340097F8273024E07B6893F820307B617B683E
:101744009B691946786800F091F90346002B0CBF99
:1017540001230023DBB2002B11D007F1200207F193
:101764000C031146184600F091FE034687F8273013
:1017740097F82730002B02D097F8273000E0002399
:1017840018462837BD4680BD80B485B000AF786068
:101794000B467B800623FB810623BB817B68DB68C9
:1017A4001B88FB817B689B691B88BB817B88002B22
:1017B4001BD0012B25D1BB89002B08D1FB894EF608
:1017C400EE62934201D100231CE001231AE0FB895D
:1017D400002B08D1BB894EF6EE62934201D101235E
:1017E40010E000230EE0AB230CE0FB89002B01D1B9
:1017F400002307E0BB89002B01D1012302E0AB23C6
:1018040000E0002318461437BD465DF8047B70479A
:1018140090B587B000AF78600B467B8013463B8061
:101824000023FB7400233B827B689B687B617B689D
:101834009A687B685B681344FB6001217868FFF752
:10184400A3FF03463B823B8AAB2B01D1AB2347E08A
:101854007B689A683B8A7968496801FB03F31344FF
:101864007B617B689A683B8A013319467B685B68B5
:1018740003FB01F31344013BFB607A69FB689A4262
:101884002DD27B691B68B3F1FF3F0CBF01230023FA
:10189400DBB2002B1FD03B884FF000041A462346CE
:1018A4007969012000F046FD0346FB74FB7C002BA4
:1018B40002D0FB7C9BB213E07B69991C7B884FF0C0
:1018C40000041A462346012000F034FD0346FB744D
:1018D400FB7C9BB204E07B6904337B61CDE780230E
:1018E40018461C37BD4690BD80B58CB000AF7860FB
:1018F4000B467B8013463B80002387F827307B68A8
:101904009B68FB6200237B850023BB8400233B850B
:1019140000237B8400233B840023FB61002178683F
:10192400FFF732FF0346BB84BB8C012B07D17B68D6
:10193400DB68FB627B6893F820307B850BE0BB8C13
:10194400002B06D17B689B69FB627B681B7D7B85D2
:1019540001E0AB2386E04EF6EE624FF00003F96A35
:10196400012000F0E7FC034687F8273097F827307A
:10197400002B03D097F827309BB273E03A887B881A
:1019840019467868FFF744FF03467B847B8C002B61
:1019940001D07B8C66E000233B853B8D002B30DC43
:1019A4003B8D7A6810335B0013445B887A889A42D3
:1019B40023D03B8D7A6810335B00134459887B68CD
:1019C40028331A46786800F0D1FA03463B843B8CEE
:1019D400012B12D03B8D7A6810335B001344598875
:1019E4007B681B8D1A467868FFF712FF03467B84D9
:1019F4007B8C002B01D07B8C34E03B8D01333B8509
:101A0400CBE70023BB607B8D3B6101237B61022319
:101A1400BB6107F11C0207F108031146184600F0E8
:101A240035FD034687F8273097F82730002B03D07D
:101A340097F827309BB215E04FF000024FF00003F7
:101A4400F96A012000F076FC034687F8273097F8FE
:101A54002730002B03D097F827309BB202E097F889
:101A640027309BB218463037BD4680BD80B485B060
:101A740000AF786039600123FB6045F255537B81E8
:101A84007B681A693B689A420ED33B681B887B814A
:101A94007B894FF6FF72934202D00023FB6003E080
:101AA4003B6804333B60EBE7FB689BB21846143792
:101AB400BD465DF8047B704780B58CB000AF78609C
:101AC40006237B8506233B850023FB850023FB84BB
:101AD4000023BB844FF6FF73BB850023FB617B6847
:101AE400DB681B887B857B689B691B883B8500239F
:101AF400BB607B681B7D3B6101237B610223BB616F
:101B04007B8D4EF6EE62934277D04FF6FF7293428E
:101B140003D0002B00F04C810EE23B8D002B22D130
:101B24007B68DB6819467868FFF7A0FF0346002B43
:101B34000CBF01230023DBB2002B00F00B8207F162
:101B44001C0207F108031146184600F09FFC0346E7
:101B540087F8233097F82330002B00F0FB8197F8A7
:101B640023309BB2FEE13B8D4EF6EE62934235D1BB
:101B74007B68DB6819467868FFF778FF0346002B1B
:101B84000CBF01230023DBB2002B12D007F11C028F
:101B940007F108031146184600F078FC034687F85D
:101BA400233097F82330002B03D097F823309BB2CF
:101BB400D8E17B6899694FF000024FF000030120DF
:101BC40000F0B8FB034687F8233097F82330002B46
:101BD40000F0C08197F823309BB2C3E17868FFF727
:101BE40065FD034687F8233097F82330002B00F077
:101BF400B18197F823309BB2B4E13B8D002B40F0C8
:101C040085800023FB85FB8D002B40DC7B68DB6833
:101C140006331B889AB2FB8D796810335B000B4442
:101C24005B889A420CBF01230023DBB2002B01D056
:101C3400FB8DBB85FA8DB7F92C309A4223D0FB8DEE
:101C44007A6810335B00134459887B6828331A463A
:101C5400786800F08BF90346BB84BB8C012B12D04F
:101C6400FB8D7A6810335B00134459887B681B8DA5
:101C74001A467868FFF7CCFD0346FB84FB8C002BE7
:101C840001D0FB8C6EE1FB8D0133FB85BBE77B68E8
:101C9400D9684FF000024FF00003012000F04AFB26
:101CA400034687F8233097F82330002B03D097F8A6
:101CB40023309BB256E17B6893F820303B610123CB
:101CC4007B610223BB617B689B6919467868FFF7D7
:101CD400CDFE0346002B0CBF01230023DBB2002BF7
:101CE40000F03A8107F11C0207F108031146184677
:101CF40000F0CCFB034687F8233097F82330002B01
:101D040000F02A8197F823309BB22BE13B8D4FF6EC
:101D1400FF7293423DD17B6893F820303B610123ED
:101D24007B610223BB617B689B6919467868FFF776
:101D34009DFE0346002B0CBF01230023DBB2002BC6
:101D440012D007F11C0207F108031146184600F0EF
:101D54009DFB034687F8233097F82330002B03D0EC
:101D640097F823309BB2FDE07B68D9684FF00002FE
:101D74004FF00003012000F0DDFA034687F823301A
:101D840097F82330002B00F0E78097F823309BB2BC
:101D9400E8E07868FFF78AFC034687F8233097F871
:101DA4002330002B00F0D88097F823309BB2D9E081
:101DB4003B8D002B0ED17868FFF778FC034687F83B
:101DC400233097F82330002B00F0C88097F8233095
:101DD4009BB2C7E03B8D4FF6FF7293422AD17B68DA
:101DE40093F820303B6101237B610223BB617B6854
:101DF4009B6919467868FFF739FE0346002B0CBF30
:101E040001230023DBB2002B00F0A88007F11C02A1
:101E140007F108031146184600F038FB034687F81B
:101E2400233097F82330002B00F0988097F8233064
:101E34009BB297E00023FB85FB8D002B40DC7B6885
:101E44009B6906331B889AB2FB8D796810335B005B
:101E54000B445B889A420CBF01230023DBB2002BA6
:101E640001D0FB8DBB85FA8DB7F92C309A4223D073
:101E7400FB8D7A6810335B00134459887B682833E0
:101E84001A46786800F072F80346BB84BB8C012BB9
:101E940012D0FB8D7A6810335B00134459887B6839
:101EA4001B8D1A467868FFF7B3FC0346FB84FB8C52
:101EB400002B01D0FB8C55E0FB8D0133FB85BBE788
:101EC4007B6899694FF000024FF00003012000F095
:101ED40031FA034687F8233097F82330002B03D0D8
:101EE40097F823309BB23DE07B681B7D3B61012367
:101EF4007B610223BB617B68DB6819467868FFF766
:101F0400B5FD0346002B0CBF01230023DBB2002BDD
:101F140024D007F11C0207F108031146184600F00B
:101F2400B5FA034687F8233097F82330002B15D0F1
:101F340097F823309BB215E07868FFF7B7FB0346A8
:101F440087F8233097F82330002B09D097F82330F3
:101F54009BB207E000BF04E000BF02E000BF00E066
:101F640000BF002318463037BD4680BD80B588B019
:101F740000AFF8600B467A607B810023FB8245F258
:101F84005553BB820123FB83FB689B68BB61FB68E1
:101F94009B683B610021F868FFF7F6FB0346FB8270
:101FA400FB8AAB2B01D1AB232EE0FB689A68FB8A3A
:101FB400F968496801FB03F313443B61FB689A68C1
:101FC400FB8A01331946FB685B6803FB01F3134486
:101FD400023BBB613B699A1CBB699A4213D2BB6941
:101FE4001B88BB82BA8A7B899A4208D1BB69023BAF
:101FF4001B889AB27B681A800023FB8303E0BB69C9
:10200400043BBB61E6E7FB8B18462037BD4680BD29
:1020140080B584B000AF78600B467B8013463B806C
:102024000023FB813A887B8819467868FFF7F0FB28
:102034000346FB81FB89802B07D13A887B881946AC
:102044007868FFF751FC0346FB81FB89184610377B
:10205400BD4680BD38B50E4A0E4B054618784FF480
:102064007A73B3FBF0F31068B0FBF3F000F088F878
:10207400044658B90F2D09D8024629464FF0FF30BF
:1020840000F04AF8044B20461D6038BD012038BDDD
:1020940008000020000000200400002008B50B4BBD
:1020A4001A6842F400721A601A6842F480621A6074
:1020B4001A6842F480721A60032000F01BF80020B2
:1020C400FFF7C8FF00F0CEFD002008BD003C024031
:1020D400034A044B11681B780B441360704700BF1C
:1020E400B000002000000020014B1868704700BFBA
:1020F400B0000020074AD36823F4E0631B041B0CE0
:1021040043F0BF63000243F4003300F4E060034390
:10211400D360704700ED00E0174B30B5DC68C4F3C2
:102124000224C4F10703251D042B28BF0423062D14
:102134004FF0010505FA03F303F1FF338CBF033CB1
:1021440000241940A14005FA04F4013C224000286F
:1021540042EA01024FEA0212AFBF00F1604000F010
:102164000F00064BD2B2A5BF00F56140D2B21A549B
:1021740080F8002330BD00BF00ED00E014ED00E066
:102184000138B0F1807F0AD2064B074A5860F0212B
:1021940082F823100020072298601A6070470120FB
:1021A400704700BF10E000E000ED00E0084910B502
:1021B4000C6924F440740C610C6944F440740C619F
:1021C4000C6944F001040C610260436010BD00BF5F
:1021D400003C0240074B1A6922F440721A611A69E2
:1021E40042F400721A611A6942F001021A61016034
:1021F400704700BF003C0240074B1A6922F440724A
:102204001A611A6942F480721A611A6942F0010271
:102214001A610180704700BF003C0240204BDA681D
:10222400D00606D51F49CA6942F01002CA611022BD
:10223400DA60DA68910606D51A49CA6942F00802DA
:10224400CA612022DA60164BDA68520606D51549AF
:10225400CA6942F00402CA614022DA60DA681006F0
:1022640006D51049CA6942F00202CA618022DA60C6
:102274000B4BDA68D10507D50A49CA6942F0010255
:10228400CA614FF48072DA60DA68920706D50549AC
:10229400CA6942F02002CA610222DA60704700BFB4
:1022A400003C0240B4000020064B1A69002ABFBF5C
:1022B400054A5A6002F188325A60BABF1869C00FE1
:1022C40000207047003C024023016745034A13691C
:1022D40043F0004313610020704700BF003C0240FC
:1022E400F8B5124B124C00220546DA61FFF7FCFEEA
:1022F40026460746E368DA030CD4E368DB0744BFE9
:102304000123E360F06810F4F97002D0FFF786FF50
:102314000120F8BD691CEDD00DB90320F8BDFFF70D
:10232400E3FEC01B8542E5D2F7E700BFB4000020FE
:10233400003C02402DE9F041204D98462B7E012BB4
:1023440007460E46144635D001234CF250302B7606
:10235400FFF7C6FFB0B9CFB9194B1A6922F440721E
:102364001A611A691A611A69E4B242F001021A6127
:1023740034704CF25030FFF7B3FF114A136923F065
:102384000103136100232B76BDE8F081012F04D1F2
:10239400A1B23046FFF730FFEBE7022F04D121460C
:1023A4003046FFF717FFE4E7224643463046FFF77F
:1023B400FDFEDEE70220BDE8F08100BFB40000208E
:1023C400003C0240074B1A6922F440721A611A69F0
:1023D40042F004021A611A6942F4803242EA00208F
:1023E40018617047003C024039B101291CD0022910
:1023F4000CBF4FF400714FF440710D4B1A6922F475
:1024040040721A611A69114319611A6922F0F802BB
:102414001A611A6942F0020242EAC00018611A699C
:1024240042F480321A6170474FF48071E5E700BFCF
:10243400003C0240144B1A6891050FD51A6822F427
:1024440000721A601A6842F400621A601A6822F470
:1024540000621A601A6842F400721A600A4B1A6821
:1024640052050FD51A6822F480621A601A6842F481
:1024740080521A601A6822F480521A601A6842F470
:1024840080621A60704700BF003C02402DE9F843A7
:10249400234E337E012B044688463FD001234CF261
:1024A40050303376FFF71CFF0546A8B94FF0FF33D1
:1024B400C8F800302368012B13D1207CFFF782FF7A
:1024C4004CF25030FFF70CFF164A136923F0040353
:1024D40005461361FFF7AEFF002333762846BDE8B7
:1024E400F883A768DFF83C90E368A26813449F422E
:1024F400F0D2217C3846FFF777FF4CF25030FFF7DB
:10250400EFFED9F8103023F0FA03C9F8103018B1EF
:10251400C8F800700546DDE70137E5E70225DDE789
:10252400B4000020003C02402DE9F341044618B9F0
:10253400012002B0BDE8F0810368DD0710D42368F0
:10254400980758D423681A0700F19A8023685B0718
:1025540000F1B880A269002A40F019810020E8E760
:10256400A64B9A6802F00C02042A07D09A6802F07B
:102574000C02082A0AD15B68590207D59F4B1B68D5
:102584009A03DCD56368002BD9D1D1E763689B4DEE
:10259400B3F5803F11D12B6843F480332B60FFF7F0
:1025A400A3FD964D06462B689B03C8D4FFF79CFDFC
:1025B400801B6428F7D90320BBE7B3F5A02F04D10F
:1025C4002B6843F480232B60E5E72A6822F48032E9
:1025D4002A602A6822F480222A60002BDFD1FFF7C8
:1025E40083FD06462B689F03A9D5FFF77DFD801B5D
:1025F4006428F7D9DFE7814B9A6812F00C0F07D0F3
:102604009A6802F00C02082A11D15B685E020ED4AB
:102614007A4B1A68950702D5E268012A88D11A68AC
:10262400216922F0F80242EAC1021A608AE7E268EC
:10263400734BB2B101221A60FFF756FD6F4D064687
:102644002B68980707D52B68226923F0F80343EA1F
:10265400C2032B6076E7FFF747FD801B0228EFD902
:10266400A9E71A60FFF740FD644D06462B689907F9
:102674007FF568AFFFF738FD801B0228F6D99AE78B
:102684006269604B7AB101221A60FFF72DFD5B4D40
:1026940006466B6F9F073FF559AFFFF725FD801B7B
:1026A4000228F6D987E71A60FFF71EFD534D064648
:1026B4006B6F98077FF54AAFFFF716FD801B022862
:1026C400F6D978E74D4B1A6C12F0805228D101925A
:1026D4001A6C42F080521A641B6C03F0805301930D
:1026E400019B0126484D2B68D9051BD5A368434D92
:1026F400012B27D12B6F43F001032B67FFF7F4FC69
:102704003E4D074641F288382B6F9B0739D5002E82
:102714003FF420AF394A136C23F08053136419E754
:102724000026DFE72B6843F480732B60FFF7DCFCA3
:1027340007462B68DA05D9D4FFF7D6FCC01B02285C
:10274400F7D938E7052B04D12B6F43F004032B672B
:10275400D0E72A6F22F001022A672A6F22F00402CE
:102764002A67002BCAD1FFF7BFFC41F2883807461D
:102774002B6F9807CBD5FFF7B7FCC01B4045F7D9A3
:1027840019E7FFF7B1FCC01B4045BDD913E71B4D4A
:10279400AB6803F00C03082B3FF4CAAE1B4E0023B6
:1027A400022A336034D1FFF79FFC07462B68990156
:1027B4001ED4226AE3691343626A43EA8213E26A1B
:1027C40043EA0263A26A0D4C5208013A43EA024307
:1027D4006B6001233360FFF787FC054623689A0189
:1027E4003FF5BCAEFFF780FC401B0228F6D9E2E6B9
:1027F400FFF77AFCC01B0228D8D9DCE60038024077
:1028040000004742800E474200700040600047428B
:10281400FFF76AFC04462B689B017FF59FAEFFF728
:1028240063FC001B0228F6D9C5E600BF134908B5AE
:102834008B6803F00C03042B03D0082B03D010483F
:1028440008BD104808BD4A684B68496813F4800302
:1028540014BF0C480A48C1F3881118BF002302F0C2
:102864003F02A1FB0001FDF7BDFC044B5B68C3F311
:10287400014301335B00B0FBF3F008BD00380240B4
:102884000024F40040787D012DE9F0410D46044612
:1028940010B90120BDE8F081444B1A6802F00F0220
:1028A4008A4228D321688F072DD4C80740D43F4BD0
:1028B4001A6802F00F02954266D3226851076CD45D
:1028C400130707D53A4A2169936823F4604343EA1E
:1028D400C1039360FFF7AAFF354B364A9B68C3F3E5
:1028E4000313D35CD840344B18600020FFF7B2FBCD
:1028F4000020BDE8F081CAB21A701B6803F00F0310
:102904009942C6D1CEE72A4B11F0040F1EBF9A6834
:1029140042F4E0529A600E0742BF9A6842F4604261
:102924009A609A68A06822F0F00202439A60BCE7B9
:1029340062681F4B012A1DD11B6813F4003FA8D005
:102944001B4EB36823F003031343B360FFF7CCFBC0
:1029540041F288380746B368626803F00C03B3EBAE
:10296400820FA4D0FFF7C0FBC01B4045F3D903205E
:10297400BDE8F081911E01291B6802D813F0007F85
:10298400DDE713F0020FDAE7EAB21A701B6803F00E
:102994000F039D427FF47DAF8FE70549E0688B68A4
:1029A40023F4E05303438B608AE700BF003C0240FA
:1029B40000380240D83A00080800002090B599B0C9
:1029C40002AFFFF76BFB00F0CFF807F11C00012307
:1029D400019310230093032302226049FEF706FDAE
:1029E40007F11C031846FEF78EFD034687F857309F
:1029F40097F85730002B3BD007F11C034D220021E0
:102A04001846FEF7B4FD07F11C0300211846FEF733
:102A140092FD03463B7607F11C034F220121184621
:102A2400FEF7A5FD07F11C0301211846FEF783FDFF
:102A340003467B7607F11C03482202211846FEF761
:102A440096FD07F11C0302211846FEF774FD0346A8
:102A5400BB7607F11C03412203211846FEF787FDCC
:102A640007F11C0303211846FEF765FD0346FB76B8
:102A74002C2000F06EF903461C46042301938023A6
:102A840000930623052236492046FEF7AFFC3C6539
:102A9400386DFEF738FD034687F84F3097F84F300E
:102AA400002B36D041220021386DFEF760FD002155
:102AB400386DFEF740FD03463B7454220121386D06
:102AC400FEF755FD0121386DFEF735FD03467B7495
:102AD40045220221386DFEF74AFD0221386DFEF7CA
:102AE4002AFD0346BB7445220321386DFEF73FFDE2
:102AF4000321386DFEF71FFD0346FB7451220421A8
:102B0400386DFEF734FD0421386DFEF714FD0346DD
:102B14003B75144B3C460FCB84E80F003A46102318
:102B24000A21386DFEF749FD012000F012F9034631
:102B340000221A70BB6410230A22B96C386DFEF7A8
:102B440072FDFEE7204600F002F9FFE707F11C03DF
:102B54001846FEF7B9FC00F00DF900BF008000082C
:102B640000000208C83A000880B594B000AF07F12D
:102B7400200330220021184600F04AFE07F10C031E
:102B840000221A605A609A60DA601A610023BB60FE
:102B94002E4A2E4B1B6C43F0805313642B4B1B6C3F
:102BA40003F08053BB60BB6800237B60284A284B3A
:102BB4001B6823F4404343F400431360244B1B6815
:102BC40003F440437B607B6802233B620123FB6286
:102BD40010233B630223BB630023FB6310233B648A
:102BE4004FF4A8737B640423BB640423FB6407F1E0
:102BF40020031846FFF798FC0346002B14BF01235B
:102C04000023DBB2002B01D000F024F80F23FB607B
:102C140002233B6100237B614FF48053BB6100239B
:102C2400FB6107F10C0302211846FFF72DFE034652
:102C3400002B14BF01230023DBB2002B01D000F0D2
:102C440009F800BF5037BD4680BD00BF00380240C0
:102C54000070004080B400AF00BFBD465DF8047B47
:102C64007047000082B00C4B002100915A6C42F472
:102C740080425A645A6C02F480420092009A019194
:102C84001A6C42F080521A641B6C03F08053019357
:102C9400019B02B0704700BF003802407047FEE756
:102CA400FEE7FEE7FEE7704770477047FFF710BA8C
:102CB4000F49D1F8883043F47003C1F888300D4BC4
:102CC4001A68002042F001021A6098601A6822F023
:102CD400847222F480321A60074A5A601A6822F415
:102CE40080221A60D8604FF000638B60704700BF89
:102CF40000ED00E00038024010300024DFF834D04A
:102D0400002103E00C4B5B58435004310B480C4B3F
:102D140042189A42F6D30B4A02E0002342F8043BDD
:102D2400094B9A42F9D3FFF7C3FF00F03DFDFFF7CB
:102D340045FE704700800120303E0008000000205E
:102D44007800002078000020D8000020FEE700F082
:102D540057BD10B5002814BF04460124204600F0D6
:102D640047FD30B900F052FB08B900F015FD80476B
:102D7400F4E710BD1EB400F09CF81EBCFEF72CF95D
:102D84000378472B17D143784E2B14D18378552BD6
:102D940011D1C378432B0ED10379432B0BD1437943
:102DA4002B2B08D183792B2B05D1C07901288CBF1B
:102DB4000020012070470020704700002DE9F341F6
:102DC4001E460378472B0D460246C17948D1437805
:102DD4004E2B45D18378552B42D1C378432B3FD119
:102DE4000379462B3CD143794F2B39D18379522B2C
:102DF40036D1002934D101230846002401943BBB79
:102E040040BB01290ABF52F8203CA2F12003783BC1
:102E1400012908BF52F8202C1C6818BF58320192AF
:102E2400236820469B689847B0B1019B1B680193B7
:102E340002272B6801AAD3F81080214601232846D3
:102E4400C04758B1019B3360384602B0BDE8F081F9
:102E5400074CE5E7074CE3E70127EAE70746F3E712
:102E64001046FFF78DFF80F00100C0B20023C4E7D5
:102E74005C3B0008643B000810B5044600F086FC87
:102E840002462046A4F12001FFF77AFF60B154F80E
:102E9400043C0133012B44F8043C03D1936844F807
:102EA400083C9160012010BD9368002BF9D000F01C
:102EB40055FC10B500F06AFC826801460AB900F0BE
:102EC4004DFC02F120042046FFF75AFF40B1D369BC
:102ED400013BD36113B9906988609361204610BDAA
:102EE4008860FBE770B50023A0EBC006C0EBC0020E
:102EF40010F8015B941905F07F02A24013432A06DF
:102F0400F4D40B6070BD30B500231A4610F8014BA1
:102F140004F07F0595402B43250602F10702F5D402
:102F24001F2A06D8640642BF4FF0FF3404FA02F2A7
:102F340013430B6030BD5028F7B505460E461446C2
:102F44001F4607D1D01C20F0030050F8043B3B601F
:102F540003B0F0BD00F00F030C2B2ED8DFE803F014
:102F640025071D25292D2D2D2D182125290001A9E1
:102F74002046FFF7B7FF019B002BE8D005F0700255
:102F8400102A08BF264633442A0648BF1B68DEE7DA
:102F940001A92046FFF7B7FFEDE7204630F8023BD2
:102FA400EAE7204630F9023BE6E7204650F8043BC6
:102FB400E2E7204650F8083BDEE700F0EDFB08B5F9
:102FC4000346FF2B084607D003F07003202B0DD0D7
:102FD40004D80BB1102B07D1002008BD402B0DD015
:102FE400502BF9D0302B05D000F0D6FBBDE80840BB
:102FF400FEF7F2B9BDE80840FEF7F2B9BDE80840B3
:10300400FEF7DAB970B50C460146204615461E4651
:10301400FFF7D5FF33462A4601462046BDE87040F7
:10302400FFF789BF73B50E461446054628B3FEF76D
:10303400C3F920603178FF2906F101021ED0231D57
:103044002846FFF7DFFF024613782375FF2B02F1B2
:10305400010015D01023237501A9FFF743FF019B3D
:103064000344E3600378637501A90130FFF73AFF75
:10307400019B0344236102B070BDDAE76060E3E7BB
:103084000023EEE71FB503AB009300230A4619465D
:10309400FDF7FCFB039805B05DF804FB2DE9F04F48
:1030A40091B00023049300F00303012B07460C4660
:1030B400164611D003D3022B03D000F06DFB020798
:1030C4001AD531462046FEF763F918B1092011B02C
:1030D400BDE8F08F0820FAE700F0080505F0FF08C6
:1030E40085BBD1F8209010460D21FFF7CBFF814519
:1030F40040F04081062500E0012510AB07F00807E9
:1031040043F82C4D009300233D430C2219463046CE
:10311400FDF7E2FB062D40F03981D4F83080A76A30
:10312400E16AB8F1000F0CBF4FF0010A4FF0030A37
:1031340015F0080500F0CE80BAF1010F40F0C6800A
:1031440000F00CFB0225D8E7079A13449F4280F055
:103154003781DDF82080B8F1000F01D00B9B984433
:10316400099F17B1781E0E9F0744B8F1000FA8D02D
:10317400002F00F0A18015F00803029336D04723F6
:1031840023704E2363705523A3704323E3704623B7
:1031940023714F2363715223A3710023E3714FF012
:1031A400000A6FF0030B07A93846FFF7ACFE08A925
:1031B4000390FFF7A8FE079A002A76D03DDD9DF81C
:1031C4003C00FF2835D000F00703042B3FF675AF11
:1031D40001A151F823F000BF3B320008BF300008C2
:1031E400033200083B32000833320008E379012B34
:1031F4000CBF54F8203C04F158030493CFE7022792
:103204000D9909AB07FB12120C99FFF794FE09996B
:1032140069B32CB104AB00222046FFF7CFFD30BBCD
:10322400089F002F44D0039B3B441F46BBE708275D
:10323400E6E70027E4E70427E2E70D9F01326CB3D9
:10324400029B5BBB049B06930BFB0272171F57F890
:10325400041F41B106AB002239442046FFF7AEFDFE
:103264000028F4D0012181F001010029D8D0079F62
:103274004FF0030AEB0727D5BAF1020F3FF421AF51
:103284000D213046049DFFF7FDFE65622062A762B2
:10329400C4F82C90C4F83080062018E70BFB02F227
:1032A400B958B1FA81F14909DFE74FF0010AB7E7EC
:1032B400BAF1000F3FF405AF4FF0020ADAE7002736
:1032C400B8464FF0010AD5E7494631E7002F23DA23
:1032D40000F056FABAF1010F02D1204600F0C8F905
:1032E400002F19DA0AAA3046FFF79CFE31469DF8F2
:1032F4003C00FFF764FE6FF0030307FB03320D9BF2
:103304000C90134453F825200AB10135FAE704223E
:10331400A562E0622263636310AB304643F81C4D40
:10332400009300231A461946FDF7D6FA10AB012282
:1033340043F8207D0093002319463046FDF7CCFA6C
:103344000F213046FFF79EFE10AB00F0010040EA6B
:10335400080043F8240D009300230F221946304639
:10336400FDF7BAFABAF1020F02D12046FFF784FD45
:103374000720ACE610AA434642F82C4D4146009281
:1033840030460C2245F00205FDF7A6FA3046FEF75A
:1033940019F8814600283FF494AE0AAA0146304643
:1033A400FFF740FE314680469DF83C00FFF707FEDC
:1033B4000F210C903046FFF765FE20F00100471EF8
:1033C4000E9B9845BFF47BAF424606AB9DF83D107B
:1033D4000020FFF717FE07AB02469DF83D100020C2
:1033E400FFF710FE08AB02469DF83D100020FFF7E2
:1033F40009FE09A9FFF776FD069A0A9B13449F422A
:103404008046BFF4A1AEDDF83880D9E7024B1868D6
:10341400BFF35B8F704700BF940000207FB510237B
:1034240002930368002415469E6900946B468DF848
:10343400044003941268B0479DF8043003F0060377
:10344400062B03BF009B2B600120204604B070BDF7
:10345400009890420CBF06200120704710B5034B22
:103464000360044600F04BF8204610BD203B0008E2
:1034740010B50446FFF7F2FF2046082100F08AF950
:10348400204610BD38B515461C4600F03BF820B167
:103494000823E36006232560237138BD2DE9F0413C
:1034A40005460C4616461F4600F02CF848B9032F73
:1034B40007D823683246294620465B69BDE8F041B7
:1034C4001847BDE8F0812DE9F041069E099C984615
:1034D400089B9E420746154603D1079900F012F84F
:1034E40058B94146384600F00DF818B1012326605A
:1034F4002571A3710020BDE8F0816571FAE770477A
:1035040000207047814208B50ED0406803782A2B0A
:103514000CD049680B782A2B08BF0131FCF758FE00
:10352400B0FA80F0400908BD012008BD002008BDA4
:1035340010B5034B03600446FFF790FF204610BD0F
:10354400EC3B000810B50446FFF7F2FF20460C21BF
:1035540000F020F9204610BD2DE9F041069E964268
:1035640080460F4614461D4603D11946FFF7CAFF8D
:1035740058B9D8F80800036806961E6A22462B46F6
:103584003946B446BDE8F04160470620BDE8F08105
:103594002DE9F14F0E4619468346174699460A9C73
:1035A400DDF82CA0DDF830800D9DFFF7ABFF90B166
:1035B400002E2C602F7109DB3444A0450CBF062477
:1035C4000124AC71002001B0BDE8F08F0236F9D1BE
:1035D4000123AB71F6E7444504D151465846FFF741
:1035E40091FF88B9DBF8080003680D95CDF83080A9
:1035F400CDF82CA00A94DC693A464B463146A446E1
:1036040001B0BDE8F04F60476F71DBE72DE9F04191
:1036140004460D4616461F46FFF734FF48B9A06816
:1036240003689C6932463B462946A446BDE8F041FE
:103634006047BDE8F0810378472B17D143784E2BC0
:1036440014D18378552B11D1C378432B0ED1037930
:10365400432B0BD143792B2B08D183792B2B05D109
:10366400C07901288CBF00200120704700207047DA
:1036740010B5044648B100F03BF82046FFF7DBFFE5
:1036840018B154F8140C00F05DF800F067F838B580
:103694000246FFF7D0FF40B152F8184C00251046FF
:1036A40000F026F825B100F06BF804460125F6E792
:1036B400204600F058F80378472B17D143784E2B57
:1036C40014D18378552B11D1C378432B0ED10379B0
:1036D400432B0BD143792B2B08D183792B2B05D189
:1036E400C07901288CBF002001207047002070475A
:1036F40038B5054600F04AF8014602682846A5F1A7
:103704002004FFF7D8FF30B90AB100F027F80C60A5
:103714001446204638BD55F80C3C002BB4BFC3F109
:103724000103013345F80C3C4B68A24203F1FF331B
:103734004B6028461CBF45F8102C0C606C6AFDF7E2
:103744009DF8E6E708B5804700F026F8024B1868B4
:10375400BFF35B8F704700BF0C00002008B5FFF774
:10376400F5FFFFF7EFFF08B58047FFF7F7FF00000D
:10377400024B1868BFF35B8F704700BF1000002036
:1037840008B5FFF7F5FFFFF7EEFF000000487047AC
:1037940098000020FFF7DBBA08B5062000F024F9F2
:1037A400012000F069F9000070B50D4E0D4CA41B0A
:1037B400A4100025A54209D10B4E0C4C00F05EF973
:1037C400A41BA4100025A54205D170BD56F82530D0
:1037D40098470135EEE756F8253098470135F2E76A
:1037E400283E0008283E0008283E00082C3E000819
:1037F400024B0146186800F061B800BF14000020B5
:10380400024B0146186800F00BB800BF14000020FA
:1038140002440346934200D1704703F8011BF9E7C1
:1038240038B50546002945D051F8043C0C1F002B3F
:10383400B8BFE41800F0F4F81F4A1368104633B90F
:10384400636014602846BDE8384000F0EAB8A3423B
:103854000CD921686218934204BF1A685B686360DC
:1038640004BF521822600460ECE713465A680AB198
:10387400A242FAD919685818A0420BD12068014411
:10388400581882421960DDD1106852685A600144A8
:103894001960D7E702D90C232B60D3E720682118DD
:1038A4008A4204BF11685268626004BF091821602B
:1038B4005C60C7E738BD00BFA400002070B5CD1C14
:1038C40025F0030508350C2D38BF0C25002D0646C0
:1038D40001DBA94203D90C233360002070BD00F042
:1038E4009FF8234A1468214691B9224C23681BB9D6
:1038F400304600F041F820602946304600F03CF89C
:10390400431C26D10C233360304600F08AF8E4E7E8
:103914000B685B1B1AD40B2B0FD90B60CD50CC1842
:10392400304600F07EF804F10B00231D20F0070060
:10393400C31A1BD05A42E25070BD8C420DBF63685B
:103944004B686360136018BF0C46E9E70C4649688E
:10395400CAE7C41C24F00304A04205D0211A30464F
:1039640000F00AF80130CDD02560D9E770BD00BF62
:10397400A4000020A800002038B5064C002305460A
:103984000846236000F06AF8431C02D1236803B19F
:103994002B6038BDD40000201F2938B504460D46DD
:1039A40004D9162303604FF0FF3038BD426C12B1C6
:1039B40052F821304BB9204600F030F82A4601462F
:1039C4002046BDE8384000F017B8012B0AD0591C36
:1039D40003D116230360012038BD002442F825409A
:1039E40028469847002038BD024B01461868FFF767
:1039F400D3BF00BF1400002038B5074C0023054690
:103A040008461146236000F021F8431C02D12368C4
:103A140003B12B6038BD00BFD400002000F00EB805
:103A24007047704710B5431E0A44914200D110BD3F
:103A340011F8014B03F8014FF7E70000024B58223D
:103A44001A604FF0FF307047D4000020024B582218
:103A54001A604FF0FF307047D4000020044B1968FF
:103A6400024609B903491960186802441A6070478C
:103A7400AC000020D8000020FEE70000F8B500BF2D
:103A8400F8BC08BC9E467047F8B500BFF8BC08BC3B
:043A94009E46704793
:103A980000000000A83A0008CD140008ED14000842
:103AA800203B0008B03A000832304D41746565711A
:103AB800456D756C61746564454550524F4D000005
:103AC8004D73632E20456E672E2041746565710025
:103AD80000000000000000000102030406070809B6
:103AE800EC3B0008F43A0008443B00084E31305FD4
:103AF8005F637878616269763131375F5F636C61E3
:103B080073735F747970655F696E666F4500000056
:103B180000000000E83A0008613400087534000825
:103B28000535000805350008A134000821340008CF
:103B380089340008CB34000855340008203B0008BD
:103B48004C3B0008537439747970655F696E666F11
:103B580000000000203B00086C3B0008203B0008E8
:103B68008C3B00084E31305F5F637878616269761C
:103B78003131355F5F666F726365645F756E776953
:103B88006E6445004E31305F5F63787861626976B4
:103B98003131395F5F666F726569676E5F6578633B
:103BA800657074696F6E4500EC3B0008BC3B00080B
:103BB800E83A00084E31305F5F6378786162697671
:103BC8003132305F5F73695F636C6173735F7479FF
:103BD80070655F696E666F450000000000000000B8
:103BE800B03B0008353500084935000805350008A0
:103BF80005350008A13400082134000811360008F2
:083C0800953500085D35000848
:103C100001970181B0B00884000000000197018184
:103C2000B0B008840000000001970181B0B00884A2
:103C30000000000003970181B0B00884000000007C
:103C400005970181B0B00884000000000997018148
:103C5000B0B008840000000006970181B0B009846C
:103C6000000000000B970181B0B008840000000044
:103C70000B970181B0B00884000000000397018118
:103C8000B0B008840000000019F4FF7F841697018B
:103C9000B0B0B009FFFF011C061E00002A90019081
:103CA0000300CE0104880300D601B0019003009AFE
:103CB0000304000013970181B0B0088400000000E5
:103CC00008B10181B0B000840000000008B101819A
:083CD000B0B000840000000008
:103CD80040C5FF7F01000000B0C8FF7FB0A9028087
:103CE80048C9FF7FB0B0A88098C9FF7F01000000D5
:103CF800A4C9FF7FB0B0AA80DCC9FF7FAE71B280D3
:103D0800ACCAFF7F01000000A8CAFF7FAB3F388024
:103D180000CBFF7F010000000CCBFF7FB0B0AA8072
:103D280048CBFF7F01000000FCCBFF7FAB0EB280C9
:103D380064CCFF7FB0AF0A802CCFFF7F010000006A
:103D480030CFFF7FAB3F048070D1FF7F01000000C0
:103D58004CD3FF7F0084048060D3FF7F0100000004
:103D68005CD3FF7FB0AD048024D6FF7FB0A803806A
:103D780044D6FF7F44FFFF7F48D6FF7F48FFFF7F81
:103D880054D6FF7F010000003CD7FF7F7CFEFF7FF9
:103D980054D7FF7F80FEFF7F6AD7FF7F84FEFF7FB7
:103DA80092D7FF7F01000000C2D7FF7F80FEFF7F10
:103DB80006D8FF7F84FEFF7F6AD8FF7F01000000DE
:103DC800E8D8FF7F80FEFF7FBCD9FF7F010000009D
:103DD8003CDAFF7F7CFEFF7F0CDBFF7F80FEFF7FEE
:103DE80088DCFF7F01000000CCDCFF7F7CFEFF7FCA
:103DF80078E1FF7F0100000014E2FF7F78FEFF7F7B
:103E080050E2FF7F01000000B0EBFF7F74FEFF7FF0
:103E180054EDFF7F98FEFF7F38EEFF7F0100000022
:043E2800B9010008D4
:043E2C0095010008F4
:103E300001000000100000000024F4009D3700087D
:103E4000613700081800002000000000000000009A
:103E50000000000000000000000000000000000062
:103E60000000000000000000000000000000000052
:103E70000000000000000000000000000000000042
:103E80000000000000000000000000000000000032
:103E90000000000000000000000000000000000022
:083EA00000000000000000001A
:0400000508002D01C1
:00000001FF
